{
  "contractName": "Proxy",
  "abi": [
    {
      "inputs": [],
      "stateMutability": "nonpayable",
      "type": "constructor"
    },
    {
      "stateMutability": "payable",
      "type": "fallback"
    },
    {
      "inputs": [],
      "name": "admin",
      "outputs": [
        {
          "internalType": "address",
          "name": "adm",
          "type": "address"
        }
      ],
      "stateMutability": "view",
      "type": "function"
    },
    {
      "inputs": [],
      "name": "implementation",
      "outputs": [
        {
          "internalType": "address",
          "name": "impl",
          "type": "address"
        }
      ],
      "stateMutability": "view",
      "type": "function"
    },
    {
      "inputs": [
        {
          "internalType": "address",
          "name": "newImplementation",
          "type": "address"
        }
      ],
      "name": "upgrade",
      "outputs": [],
      "stateMutability": "nonpayable",
      "type": "function"
    }
  ],
  "bytecode": "0x608060405234801561001057600080fd5b5060007fb53127684a568b3173ae13b9f8a6016e243e63b6e8ee1178d6a717850b5d610360001b905060003390508082555050610373806100526000396000f3fe6080604052600436106100385760003560e01c80630900f010146100815780635c60da1b146100aa578063f851a440146100d557610039565b5b7f360894a13ba1a3210667c828492db98dca3e2076cc3735a920a3ca505d382bbc543660008037600080366000845af43d6000803e806000811461007c573d6000f35b600080fd5b34801561008d57600080fd5b506100a860048036038101906100a39190610269565b610100565b005b3480156100b657600080fd5b506100bf6101a4565b6040516100cc91906102a5565b60405180910390f35b3480156100e157600080fd5b506100ea6101d5565b6040516100f791906102a5565b60405180910390f35b6101086101d5565b73ffffffffffffffffffffffffffffffffffffffff163373ffffffffffffffffffffffffffffffffffffffff1614610175576040517f08c379a000000000000000000000000000000000000000000000000000000000815260040161016c9061031d565b60405180910390fd5b60007f360894a13ba1a3210667c828492db98dca3e2076cc3735a920a3ca505d382bbc60001b90508181555050565b6000807f360894a13ba1a3210667c828492db98dca3e2076cc3735a920a3ca505d382bbc60001b9050805491505090565b6000807fb53127684a568b3173ae13b9f8a6016e243e63b6e8ee1178d6a717850b5d610360001b9050805491505090565b600080fd5b600073ffffffffffffffffffffffffffffffffffffffff82169050919050565b60006102368261020b565b9050919050565b6102468161022b565b811461025157600080fd5b50565b6000813590506102638161023d565b92915050565b60006020828403121561027f5761027e610206565b5b600061028d84828501610254565b91505092915050565b61029f8161022b565b82525050565b60006020820190506102ba6000830184610296565b92915050565b600082825260208201905092915050565b7f61646d696e206f6e6c7900000000000000000000000000000000000000000000600082015250565b6000610307600a836102c0565b9150610312826102d1565b602082019050919050565b60006020820190508181036000830152610336816102fa565b905091905056fea26469706673582212209cb23f44da9a4d807e399b2206adf28c0344f0730f656635573693a4383da4dd64736f6c634300080a0033",
  "immutableReferences": {},
  "source": "//SPDX-License-Identifier: MIT\r\n\r\npragma solidity ^0.8.6;\r\n\r\ncontract Proxy {\r\n  bytes32 private constant _ADMIN_SLOT = 0xb53127684a568b3173ae13b9f8a6016e243e63b6e8ee1178d6a717850b5d6103;\r\n  bytes32 private constant _IMPLEMENTATION_SLOT = 0x360894a13ba1a3210667c828492db98dca3e2076cc3735a920a3ca505d382bbc;\r\n\r\n  constructor() {\r\n    bytes32 slot = _ADMIN_SLOT;\r\n    address _admin = msg.sender;\r\n    assembly {\r\n      sstore(slot, _admin)\r\n    }\r\n  }\r\n\r\n  function admin() public view returns (address adm) {\r\n    bytes32 slot = _ADMIN_SLOT;\r\n    assembly {\r\n      adm := sload(slot)\r\n    }\r\n  }\r\n\r\n  function implementation() public view returns (address impl) {\r\n    bytes32 slot = _IMPLEMENTATION_SLOT;\r\n    assembly {\r\n      impl := sload(slot)\r\n    }\r\n  }\r\n\r\n  function upgrade(address newImplementation) external {\r\n    require(msg.sender == admin(), 'admin only');\r\n    bytes32 slot = _IMPLEMENTATION_SLOT;\r\n    assembly {\r\n      sstore(slot, newImplementation)\r\n    }\r\n  }\r\n\r\n\r\n  fallback() external payable {\r\n    assembly {\r\n      let _target := sload(_IMPLEMENTATION_SLOT)\r\n      calldatacopy(0x0, 0x0, calldatasize())\r\n      let result := delegatecall(gas(), _target, 0x0, calldatasize(), 0x0, 0)\r\n      returndatacopy(0x0, 0x0, returndatasize())\r\n      switch result case 0 {revert(0, 0)} default {return (0, returndatasize())}\r\n    }\r\n  }\r\n}",
  "sourcePath": "F:\\ProxyContraact-Truffle\\contracts\\ProxyContract.sol",
  "compiler": {
    "name": "solc",
    "version": "0.8.10+commit.fc410830.Emscripten.clang"
  },
  "schemaVersion": "3.4.3",
  "updatedAt": "2021-12-23T13:14:18.512Z",
  "devdoc": {
    "kind": "dev",
    "methods": {},
    "version": 1
  },
  "userdoc": {
    "kind": "user",
    "methods": {},
    "version": 1
  }
}