{
  "contractName": "Token1",
  "abi": [
    {
      "inputs": [],
      "stateMutability": "nonpayable",
      "type": "constructor"
    },
    {
      "anonymous": false,
      "inputs": [
        {
          "indexed": false,
          "internalType": "address",
          "name": "previousAdmin",
          "type": "address"
        },
        {
          "indexed": false,
          "internalType": "address",
          "name": "newAdmin",
          "type": "address"
        }
      ],
      "name": "AdminChanged",
      "type": "event"
    },
    {
      "anonymous": false,
      "inputs": [
        {
          "indexed": true,
          "internalType": "address",
          "name": "owner",
          "type": "address"
        },
        {
          "indexed": true,
          "internalType": "address",
          "name": "spender",
          "type": "address"
        },
        {
          "indexed": false,
          "internalType": "uint256",
          "name": "value",
          "type": "uint256"
        }
      ],
      "name": "Approval",
      "type": "event"
    },
    {
      "anonymous": false,
      "inputs": [
        {
          "indexed": true,
          "internalType": "address",
          "name": "beacon",
          "type": "address"
        }
      ],
      "name": "BeaconUpgraded",
      "type": "event"
    },
    {
      "anonymous": false,
      "inputs": [
        {
          "indexed": true,
          "internalType": "address",
          "name": "previousOwner",
          "type": "address"
        },
        {
          "indexed": true,
          "internalType": "address",
          "name": "newOwner",
          "type": "address"
        }
      ],
      "name": "OwnershipTransferred",
      "type": "event"
    },
    {
      "anonymous": false,
      "inputs": [
        {
          "indexed": true,
          "internalType": "address",
          "name": "from",
          "type": "address"
        },
        {
          "indexed": true,
          "internalType": "address",
          "name": "to",
          "type": "address"
        },
        {
          "indexed": false,
          "internalType": "uint256",
          "name": "value",
          "type": "uint256"
        }
      ],
      "name": "Transfer",
      "type": "event"
    },
    {
      "anonymous": false,
      "inputs": [
        {
          "indexed": true,
          "internalType": "address",
          "name": "implementation",
          "type": "address"
        }
      ],
      "name": "Upgraded",
      "type": "event"
    },
    {
      "inputs": [
        {
          "internalType": "address",
          "name": "owner",
          "type": "address"
        },
        {
          "internalType": "address",
          "name": "spender",
          "type": "address"
        }
      ],
      "name": "allowance",
      "outputs": [
        {
          "internalType": "uint256",
          "name": "",
          "type": "uint256"
        }
      ],
      "stateMutability": "view",
      "type": "function"
    },
    {
      "inputs": [
        {
          "internalType": "address",
          "name": "spender",
          "type": "address"
        },
        {
          "internalType": "uint256",
          "name": "amount",
          "type": "uint256"
        }
      ],
      "name": "approve",
      "outputs": [
        {
          "internalType": "bool",
          "name": "",
          "type": "bool"
        }
      ],
      "stateMutability": "nonpayable",
      "type": "function"
    },
    {
      "inputs": [
        {
          "internalType": "address",
          "name": "account",
          "type": "address"
        }
      ],
      "name": "balanceOf",
      "outputs": [
        {
          "internalType": "uint256",
          "name": "",
          "type": "uint256"
        }
      ],
      "stateMutability": "view",
      "type": "function"
    },
    {
      "inputs": [],
      "name": "decimals",
      "outputs": [
        {
          "internalType": "uint8",
          "name": "",
          "type": "uint8"
        }
      ],
      "stateMutability": "view",
      "type": "function"
    },
    {
      "inputs": [
        {
          "internalType": "address",
          "name": "spender",
          "type": "address"
        },
        {
          "internalType": "uint256",
          "name": "subtractedValue",
          "type": "uint256"
        }
      ],
      "name": "decreaseAllowance",
      "outputs": [
        {
          "internalType": "bool",
          "name": "",
          "type": "bool"
        }
      ],
      "stateMutability": "nonpayable",
      "type": "function"
    },
    {
      "inputs": [
        {
          "internalType": "address",
          "name": "spender",
          "type": "address"
        },
        {
          "internalType": "uint256",
          "name": "addedValue",
          "type": "uint256"
        }
      ],
      "name": "increaseAllowance",
      "outputs": [
        {
          "internalType": "bool",
          "name": "",
          "type": "bool"
        }
      ],
      "stateMutability": "nonpayable",
      "type": "function"
    },
    {
      "inputs": [],
      "name": "name",
      "outputs": [
        {
          "internalType": "string",
          "name": "",
          "type": "string"
        }
      ],
      "stateMutability": "view",
      "type": "function"
    },
    {
      "inputs": [],
      "name": "owner",
      "outputs": [
        {
          "internalType": "address",
          "name": "",
          "type": "address"
        }
      ],
      "stateMutability": "view",
      "type": "function"
    },
    {
      "inputs": [],
      "name": "renounceOwnership",
      "outputs": [],
      "stateMutability": "nonpayable",
      "type": "function"
    },
    {
      "inputs": [],
      "name": "symbol",
      "outputs": [
        {
          "internalType": "string",
          "name": "",
          "type": "string"
        }
      ],
      "stateMutability": "view",
      "type": "function"
    },
    {
      "inputs": [],
      "name": "totalSupply",
      "outputs": [
        {
          "internalType": "uint256",
          "name": "",
          "type": "uint256"
        }
      ],
      "stateMutability": "view",
      "type": "function"
    },
    {
      "inputs": [
        {
          "internalType": "address",
          "name": "recipient",
          "type": "address"
        },
        {
          "internalType": "uint256",
          "name": "amount",
          "type": "uint256"
        }
      ],
      "name": "transfer",
      "outputs": [
        {
          "internalType": "bool",
          "name": "",
          "type": "bool"
        }
      ],
      "stateMutability": "nonpayable",
      "type": "function"
    },
    {
      "inputs": [
        {
          "internalType": "address",
          "name": "sender",
          "type": "address"
        },
        {
          "internalType": "address",
          "name": "recipient",
          "type": "address"
        },
        {
          "internalType": "uint256",
          "name": "amount",
          "type": "uint256"
        }
      ],
      "name": "transferFrom",
      "outputs": [
        {
          "internalType": "bool",
          "name": "",
          "type": "bool"
        }
      ],
      "stateMutability": "nonpayable",
      "type": "function"
    },
    {
      "inputs": [
        {
          "internalType": "address",
          "name": "newOwner",
          "type": "address"
        }
      ],
      "name": "transferOwnership",
      "outputs": [],
      "stateMutability": "nonpayable",
      "type": "function"
    },
    {
      "inputs": [
        {
          "internalType": "address",
          "name": "newImplementation",
          "type": "address"
        }
      ],
      "name": "upgradeTo",
      "outputs": [],
      "stateMutability": "nonpayable",
      "type": "function"
    },
    {
      "inputs": [
        {
          "internalType": "address",
          "name": "newImplementation",
          "type": "address"
        },
        {
          "internalType": "bytes",
          "name": "data",
          "type": "bytes"
        }
      ],
      "name": "upgradeToAndCall",
      "outputs": [],
      "stateMutability": "payable",
      "type": "function"
    },
    {
      "inputs": [],
      "name": "initialize",
      "outputs": [],
      "stateMutability": "nonpayable",
      "type": "function"
    },
    {
      "inputs": [
        {
          "internalType": "uint256",
          "name": "amountToBeBought",
          "type": "uint256"
        }
      ],
      "name": "buy",
      "outputs": [
        {
          "internalType": "bool",
          "name": "",
          "type": "bool"
        }
      ],
      "stateMutability": "payable",
      "type": "function"
    },
    {
      "inputs": [
        {
          "internalType": "address",
          "name": "to",
          "type": "address"
        },
        {
          "internalType": "uint256",
          "name": "amount",
          "type": "uint256"
        }
      ],
      "name": "mint",
      "outputs": [],
      "stateMutability": "nonpayable",
      "type": "function"
    },
    {
      "inputs": [
        {
          "internalType": "uint256",
          "name": "burningTokensAmount",
          "type": "uint256"
        }
      ],
      "name": "burn",
      "outputs": [],
      "stateMutability": "nonpayable",
      "type": "function"
    }
  ],
  "bytecode": "0x60a06040523073ffffffffffffffffffffffffffffffffffffffff1660809073ffffffffffffffffffffffffffffffffffffffff168152503480156200004457600080fd5b50600060019054906101000a900460ff166200006f5760008054906101000a900460ff161562000080565b6200007f6200013c60201b60201c565b5b620000c2576040517f08c379a0000000000000000000000000000000000000000000000000000000008152600401620000b990620001f4565b60405180910390fd5b60008060019054906101000a900460ff16159050801562000113576001600060016101000a81548160ff02191690831515021790555060016000806101000a81548160ff0219169083151502179055505b8015620001355760008060016101000a81548160ff0219169083151502179055505b5062000216565b600062000154306200015a60201b6200103c1760201c565b15905090565b600080823b905060008111915050919050565b600082825260208201905092915050565b7f496e697469616c697a61626c653a20636f6e747261637420697320616c72656160008201527f647920696e697469616c697a6564000000000000000000000000000000000000602082015250565b6000620001dc602e836200016d565b9150620001e9826200017e565b604082019050919050565b600060208201905081810360008301526200020f81620001cd565b9050919050565b6080516132af6200024760003960008181610681015281816107100152818161094d01526109dc01526132af6000f3fe60806040526004361061011f5760003560e01c806370a08231116100a0578063a457c2d711610064578063a457c2d7146103b4578063a9059cbb146103f1578063d96a094a1461042e578063dd62ed3e1461045e578063f2fde38b1461049b5761011f565b806370a08231146102f3578063715018a6146103305780638129fc1c146103475780638da5cb5b1461035e57806395d89b41146103895761011f565b80633659cfe6116100e75780633659cfe61461021f578063395093511461024857806340c10f191461028557806342966c68146102ae5780634f1ef286146102d75761011f565b806306fdde0314610124578063095ea7b31461014f57806318160ddd1461018c57806323b872dd146101b7578063313ce567146101f4575b600080fd5b34801561013057600080fd5b506101396104c4565b6040516101469190612207565b60405180910390f35b34801561015b57600080fd5b50610176600480360381019061017191906122d1565b610556565b604051610183919061232c565b60405180910390f35b34801561019857600080fd5b506101a1610574565b6040516101ae9190612356565b60405180910390f35b3480156101c357600080fd5b506101de60048036038101906101d99190612371565b61057e565b6040516101eb919061232c565b60405180910390f35b34801561020057600080fd5b50610209610676565b60405161021691906123e0565b60405180910390f35b34801561022b57600080fd5b50610246600480360381019061024191906123fb565b61067f565b005b34801561025457600080fd5b5061026f600480360381019061026a91906122d1565b610808565b60405161027c919061232c565b60405180910390f35b34801561029157600080fd5b506102ac60048036038101906102a791906122d1565b6108b4565b005b3480156102ba57600080fd5b506102d560048036038101906102d09190612428565b61093e565b005b6102f160048036038101906102ec919061258a565b61094b565b005b3480156102ff57600080fd5b5061031a600480360381019061031591906123fb565b610a88565b6040516103279190612356565b60405180910390f35b34801561033c57600080fd5b50610345610ad1565b005b34801561035357600080fd5b5061035c610b59565b005b34801561036a57600080fd5b50610373610cd5565b60405161038091906125f5565b60405180910390f35b34801561039557600080fd5b5061039e610cff565b6040516103ab9190612207565b60405180910390f35b3480156103c057600080fd5b506103db60048036038101906103d691906122d1565b610d91565b6040516103e8919061232c565b60405180910390f35b3480156103fd57600080fd5b50610418600480360381019061041391906122d1565b610e7c565b604051610425919061232c565b60405180910390f35b61044860048036038101906104439190612428565b610e9a565b604051610455919061232c565b60405180910390f35b34801561046a57600080fd5b5061048560048036038101906104809190612610565b610ebd565b6040516104929190612356565b60405180910390f35b3480156104a757600080fd5b506104c260048036038101906104bd91906123fb565b610f44565b005b6060603680546104d39061267f565b80601f01602080910402602001604051908101604052809291908181526020018280546104ff9061267f565b801561054c5780601f106105215761010080835404028352916020019161054c565b820191906000526020600020905b81548152906001019060200180831161052f57829003601f168201915b5050505050905090565b600061056a61056361104f565b8484611057565b6001905092915050565b6000603554905090565b600061058b848484611222565b6000603460008673ffffffffffffffffffffffffffffffffffffffff1673ffffffffffffffffffffffffffffffffffffffff16815260200190815260200160002060006105d661104f565b73ffffffffffffffffffffffffffffffffffffffff1673ffffffffffffffffffffffffffffffffffffffff16815260200190815260200160002054905082811015610656576040517f08c379a000000000000000000000000000000000000000000000000000000000815260040161064d90612723565b60405180910390fd5b61066a8561066261104f565b858403611057565b60019150509392505050565b60006012905090565b7f000000000000000000000000000000000000000000000000000000000000000073ffffffffffffffffffffffffffffffffffffffff163073ffffffffffffffffffffffffffffffffffffffff16141561070e576040517f08c379a0000000000000000000000000000000000000000000000000000000008152600401610705906127b5565b60405180910390fd5b7f000000000000000000000000000000000000000000000000000000000000000073ffffffffffffffffffffffffffffffffffffffff1661074d6114a6565b73ffffffffffffffffffffffffffffffffffffffff16146107a3576040517f08c379a000000000000000000000000000000000000000000000000000000000815260040161079a90612847565b60405180910390fd5b6107ac816114fd565b61080581600067ffffffffffffffff8111156107cb576107ca61245f565b5b6040519080825280601f01601f1916602001820160405280156107fd5781602001600182028036833780820191505090505b50600061157c565b50565b60006108aa61081561104f565b84846034600061082361104f565b73ffffffffffffffffffffffffffffffffffffffff1673ffffffffffffffffffffffffffffffffffffffff16815260200190815260200160002060008873ffffffffffffffffffffffffffffffffffffffff1673ffffffffffffffffffffffffffffffffffffffff168152602001908152602001600020546108a59190612896565b611057565b6001905092915050565b6108bc61104f565b73ffffffffffffffffffffffffffffffffffffffff166108da610cd5565b73ffffffffffffffffffffffffffffffffffffffff1614610930576040517f08c379a000000000000000000000000000000000000000000000000000000000815260040161092790612938565b60405180910390fd5b61093a828261174d565b5050565b61094833826118ae565b50565b7f000000000000000000000000000000000000000000000000000000000000000073ffffffffffffffffffffffffffffffffffffffff163073ffffffffffffffffffffffffffffffffffffffff1614156109da576040517f08c379a00000000000000000000000000000000000000000000000000000000081526004016109d1906127b5565b60405180910390fd5b7f000000000000000000000000000000000000000000000000000000000000000073ffffffffffffffffffffffffffffffffffffffff16610a196114a6565b73ffffffffffffffffffffffffffffffffffffffff1614610a6f576040517f08c379a0000000000000000000000000000000000000000000000000000000008152600401610a6690612847565b60405180910390fd5b610a78826114fd565b610a848282600161157c565b5050565b6000603360008373ffffffffffffffffffffffffffffffffffffffff1673ffffffffffffffffffffffffffffffffffffffff168152602001908152602001600020549050919050565b610ad961104f565b73ffffffffffffffffffffffffffffffffffffffff16610af7610cd5565b73ffffffffffffffffffffffffffffffffffffffff1614610b4d576040517f08c379a0000000000000000000000000000000000000000000000000000000008152600401610b4490612938565b60405180910390fd5b610b576000611a87565b565b600060019054906101000a900460ff16610b815760008054906101000a900460ff1615610b8a565b610b89611b4d565b5b610bc9576040517f08c379a0000000000000000000000000000000000000000000000000000000008152600401610bc0906129ca565b60405180910390fd5b60008060019054906101000a900460ff161590508015610c19576001600060016101000a81548160ff02191690831515021790555060016000806101000a81548160ff0219169083151502179055505b610c8d6040518060400160405280600681526020017f546f6b656e3100000000000000000000000000000000000000000000000000008152506040518060400160405280600281526020017f5431000000000000000000000000000000000000000000000000000000000000815250611b5e565b610c95611bc3565b610c9d611c24565b610cb13369021e19e0c9bab240000061174d565b8015610cd25760008060016101000a81548160ff0219169083151502179055505b50565b600060c960009054906101000a900473ffffffffffffffffffffffffffffffffffffffff16905090565b606060378054610d0e9061267f565b80601f0160208091040260200160405190810160405280929190818152602001828054610d3a9061267f565b8015610d875780601f10610d5c57610100808354040283529160200191610d87565b820191906000526020600020905b815481529060010190602001808311610d6a57829003601f168201915b5050505050905090565b60008060346000610da061104f565b73ffffffffffffffffffffffffffffffffffffffff1673ffffffffffffffffffffffffffffffffffffffff16815260200190815260200160002060008573ffffffffffffffffffffffffffffffffffffffff1673ffffffffffffffffffffffffffffffffffffffff16815260200190815260200160002054905082811015610e5d576040517f08c379a0000000000000000000000000000000000000000000000000000000008152600401610e5490612a5c565b60405180910390fd5b610e71610e6861104f565b85858403611057565b600191505092915050565b6000610e90610e8961104f565b8484611222565b6001905092915050565b600081341015610ea957600080fd5b610eb33383610e7c565b5060019050919050565b6000603460008473ffffffffffffffffffffffffffffffffffffffff1673ffffffffffffffffffffffffffffffffffffffff16815260200190815260200160002060008373ffffffffffffffffffffffffffffffffffffffff1673ffffffffffffffffffffffffffffffffffffffff16815260200190815260200160002054905092915050565b610f4c61104f565b73ffffffffffffffffffffffffffffffffffffffff16610f6a610cd5565b73ffffffffffffffffffffffffffffffffffffffff1614610fc0576040517f08c379a0000000000000000000000000000000000000000000000000000000008152600401610fb790612938565b60405180910390fd5b600073ffffffffffffffffffffffffffffffffffffffff168173ffffffffffffffffffffffffffffffffffffffff161415611030576040517f08c379a000000000000000000000000000000000000000000000000000000000815260040161102790612aee565b60405180910390fd5b61103981611a87565b50565b600080823b905060008111915050919050565b600033905090565b600073ffffffffffffffffffffffffffffffffffffffff168373ffffffffffffffffffffffffffffffffffffffff1614156110c7576040517f08c379a00000000000000000000000000000000000000000000000000000000081526004016110be90612b80565b60405180910390fd5b600073ffffffffffffffffffffffffffffffffffffffff168273ffffffffffffffffffffffffffffffffffffffff161415611137576040517f08c379a000000000000000000000000000000000000000000000000000000000815260040161112e90612c12565b60405180910390fd5b80603460008573ffffffffffffffffffffffffffffffffffffffff1673ffffffffffffffffffffffffffffffffffffffff16815260200190815260200160002060008473ffffffffffffffffffffffffffffffffffffffff1673ffffffffffffffffffffffffffffffffffffffff168152602001908152602001600020819055508173ffffffffffffffffffffffffffffffffffffffff168373ffffffffffffffffffffffffffffffffffffffff167f8c5be1e5ebec7d5bd14f71427d1e84f3dd0314c0f7b2291e5b200ac8c7c3b925836040516112159190612356565b60405180910390a3505050565b600073ffffffffffffffffffffffffffffffffffffffff168373ffffffffffffffffffffffffffffffffffffffff161415611292576040517f08c379a000000000000000000000000000000000000000000000000000000000815260040161128990612ca4565b60405180910390fd5b600073ffffffffffffffffffffffffffffffffffffffff168273ffffffffffffffffffffffffffffffffffffffff161415611302576040517f08c379a00000000000000000000000000000000000000000000000000000000081526004016112f990612d36565b60405180910390fd5b61130d838383611c85565b6000603360008573ffffffffffffffffffffffffffffffffffffffff1673ffffffffffffffffffffffffffffffffffffffff16815260200190815260200160002054905081811015611394576040517f08c379a000000000000000000000000000000000000000000000000000000000815260040161138b90612dc8565b60405180910390fd5b818103603360008673ffffffffffffffffffffffffffffffffffffffff1673ffffffffffffffffffffffffffffffffffffffff1681526020019081526020016000208190555081603360008573ffffffffffffffffffffffffffffffffffffffff1673ffffffffffffffffffffffffffffffffffffffff16815260200190815260200160002060008282546114299190612896565b925050819055508273ffffffffffffffffffffffffffffffffffffffff168473ffffffffffffffffffffffffffffffffffffffff167fddf252ad1be2c89b69c2b068fc378daa952ba7f163c4a11628f55a4df523b3ef8460405161148d9190612356565b60405180910390a36114a0848484611c8a565b50505050565b60006114d47f360894a13ba1a3210667c828492db98dca3e2076cc3735a920a3ca505d382bbc60001b611c8f565b60000160009054906101000a900473ffffffffffffffffffffffffffffffffffffffff16905090565b61150561104f565b73ffffffffffffffffffffffffffffffffffffffff16611523610cd5565b73ffffffffffffffffffffffffffffffffffffffff1614611579576040517f08c379a000000000000000000000000000000000000000000000000000000000815260040161157090612938565b60405180910390fd5b50565b60006115866114a6565b905061159184611c99565b60008351118061159e5750815b156115af576115ad8484611d52565b505b60006115dd7f4910fdfa16fed3260ed0e7147f7cc6da11a60208b5b9406d12a635614ffd914360001b611e36565b90508060000160009054906101000a900460ff166117465760018160000160006101000a81548160ff0219169083151502179055506116a9858360405160240161162791906125f5565b6040516020818303038152906040527f3659cfe6000000000000000000000000000000000000000000000000000000007bffffffffffffffffffffffffffffffffffffffffffffffffffffffff19166020820180517bffffffffffffffffffffffffffffffffffffffffffffffffffffffff8381831617835250505050611d52565b5060008160000160006101000a81548160ff0219169083151502179055506116cf6114a6565b73ffffffffffffffffffffffffffffffffffffffff168273ffffffffffffffffffffffffffffffffffffffff161461173c576040517f08c379a000000000000000000000000000000000000000000000000000000000815260040161173390612e5a565b60405180910390fd5b61174585611e40565b5b5050505050565b600073ffffffffffffffffffffffffffffffffffffffff168273ffffffffffffffffffffffffffffffffffffffff1614156117bd576040517f08c379a00000000000000000000000000000000000000000000000000000000081526004016117b490612ec6565b60405180910390fd5b6117c960008383611c85565b80603560008282546117db9190612896565b9250508190555080603360008473ffffffffffffffffffffffffffffffffffffffff1673ffffffffffffffffffffffffffffffffffffffff16815260200190815260200160002060008282546118319190612896565b925050819055508173ffffffffffffffffffffffffffffffffffffffff16600073ffffffffffffffffffffffffffffffffffffffff167fddf252ad1be2c89b69c2b068fc378daa952ba7f163c4a11628f55a4df523b3ef836040516118969190612356565b60405180910390a36118aa60008383611c8a565b5050565b600073ffffffffffffffffffffffffffffffffffffffff168273ffffffffffffffffffffffffffffffffffffffff16141561191e576040517f08c379a000000000000000000000000000000000000000000000000000000000815260040161191590612f58565b60405180910390fd5b61192a82600083611c85565b6000603360008473ffffffffffffffffffffffffffffffffffffffff1673ffffffffffffffffffffffffffffffffffffffff168152602001908152602001600020549050818110156119b1576040517f08c379a00000000000000000000000000000000000000000000000000000000081526004016119a890612fea565b60405180910390fd5b818103603360008573ffffffffffffffffffffffffffffffffffffffff1673ffffffffffffffffffffffffffffffffffffffff168152602001908152602001600020819055508160356000828254611a09919061300a565b92505081905550600073ffffffffffffffffffffffffffffffffffffffff168373ffffffffffffffffffffffffffffffffffffffff167fddf252ad1be2c89b69c2b068fc378daa952ba7f163c4a11628f55a4df523b3ef84604051611a6e9190612356565b60405180910390a3611a8283600084611c8a565b505050565b600060c960009054906101000a900473ffffffffffffffffffffffffffffffffffffffff1690508160c960006101000a81548173ffffffffffffffffffffffffffffffffffffffff021916908373ffffffffffffffffffffffffffffffffffffffff1602179055508173ffffffffffffffffffffffffffffffffffffffff168173ffffffffffffffffffffffffffffffffffffffff167f8be0079c531659141344cd1fd0a4f28419497f9722a3daafe3b4186f6b6457e060405160405180910390a35050565b6000611b583061103c565b15905090565b600060019054906101000a900460ff16611bad576040517f08c379a0000000000000000000000000000000000000000000000000000000008152600401611ba4906130b0565b60405180910390fd5b611bb5611e8f565b611bbf8282611ee0565b5050565b600060019054906101000a900460ff16611c12576040517f08c379a0000000000000000000000000000000000000000000000000000000008152600401611c09906130b0565b60405180910390fd5b611c1a611e8f565b611c22611f61565b565b600060019054906101000a900460ff16611c73576040517f08c379a0000000000000000000000000000000000000000000000000000000008152600401611c6a906130b0565b60405180910390fd5b611c7b611fc2565b611c83612013565b565b505050565b505050565b6000819050919050565b611ca28161103c565b611ce1576040517f08c379a0000000000000000000000000000000000000000000000000000000008152600401611cd890613142565b60405180910390fd5b80611d0e7f360894a13ba1a3210667c828492db98dca3e2076cc3735a920a3ca505d382bbc60001b611c8f565b60000160006101000a81548173ffffffffffffffffffffffffffffffffffffffff021916908373ffffffffffffffffffffffffffffffffffffffff16021790555050565b6060611d5d8361103c565b611d9c576040517f08c379a0000000000000000000000000000000000000000000000000000000008152600401611d93906131d4565b60405180910390fd5b6000808473ffffffffffffffffffffffffffffffffffffffff1684604051611dc4919061323b565b600060405180830381855af49150503d8060008114611dff576040519150601f19603f3d011682016040523d82523d6000602084013e611e04565b606091505b5091509150611e2c828260405180606001604052806027815260200161325360279139612064565b9250505092915050565b6000819050919050565b611e4981611c99565b8073ffffffffffffffffffffffffffffffffffffffff167fbc7cd75a20ee27fd9adebab32041f755214dbc6bffa90cc0225b39da2e5c2d3b60405160405180910390a250565b600060019054906101000a900460ff16611ede576040517f08c379a0000000000000000000000000000000000000000000000000000000008152600401611ed5906130b0565b60405180910390fd5b565b600060019054906101000a900460ff16611f2f576040517f08c379a0000000000000000000000000000000000000000000000000000000008152600401611f26906130b0565b60405180910390fd5b8160369080519060200190611f459291906120cb565b508060379080519060200190611f5c9291906120cb565b505050565b600060019054906101000a900460ff16611fb0576040517f08c379a0000000000000000000000000000000000000000000000000000000008152600401611fa7906130b0565b60405180910390fd5b611fc0611fbb61104f565b611a87565b565b600060019054906101000a900460ff16612011576040517f08c379a0000000000000000000000000000000000000000000000000000000008152600401612008906130b0565b60405180910390fd5b565b600060019054906101000a900460ff16612062576040517f08c379a0000000000000000000000000000000000000000000000000000000008152600401612059906130b0565b60405180910390fd5b565b60608315612074578290506120c4565b6000835111156120875782518084602001fd5b816040517f08c379a00000000000000000000000000000000000000000000000000000000081526004016120bb9190612207565b60405180910390fd5b9392505050565b8280546120d79061267f565b90600052602060002090601f0160209004810192826120f95760008555612140565b82601f1061211257805160ff1916838001178555612140565b82800160010185558215612140579182015b8281111561213f578251825591602001919060010190612124565b5b50905061214d9190612151565b5090565b5b8082111561216a576000816000905550600101612152565b5090565b600081519050919050565b600082825260208201905092915050565b60005b838110156121a857808201518184015260208101905061218d565b838111156121b7576000848401525b50505050565b6000601f19601f8301169050919050565b60006121d98261216e565b6121e38185612179565b93506121f381856020860161218a565b6121fc816121bd565b840191505092915050565b6000602082019050818103600083015261222181846121ce565b905092915050565b6000604051905090565b600080fd5b600080fd5b600073ffffffffffffffffffffffffffffffffffffffff82169050919050565b60006122688261223d565b9050919050565b6122788161225d565b811461228357600080fd5b50565b6000813590506122958161226f565b92915050565b6000819050919050565b6122ae8161229b565b81146122b957600080fd5b50565b6000813590506122cb816122a5565b92915050565b600080604083850312156122e8576122e7612233565b5b60006122f685828601612286565b9250506020612307858286016122bc565b9150509250929050565b60008115159050919050565b61232681612311565b82525050565b6000602082019050612341600083018461231d565b92915050565b6123508161229b565b82525050565b600060208201905061236b6000830184612347565b92915050565b60008060006060848603121561238a57612389612233565b5b600061239886828701612286565b93505060206123a986828701612286565b92505060406123ba868287016122bc565b9150509250925092565b600060ff82169050919050565b6123da816123c4565b82525050565b60006020820190506123f560008301846123d1565b92915050565b60006020828403121561241157612410612233565b5b600061241f84828501612286565b91505092915050565b60006020828403121561243e5761243d612233565b5b600061244c848285016122bc565b91505092915050565b600080fd5b600080fd5b7f4e487b7100000000000000000000000000000000000000000000000000000000600052604160045260246000fd5b612497826121bd565b810181811067ffffffffffffffff821117156124b6576124b561245f565b5b80604052505050565b60006124c9612229565b90506124d5828261248e565b919050565b600067ffffffffffffffff8211156124f5576124f461245f565b5b6124fe826121bd565b9050602081019050919050565b82818337600083830152505050565b600061252d612528846124da565b6124bf565b9050828152602081018484840111156125495761254861245a565b5b61255484828561250b565b509392505050565b600082601f83011261257157612570612455565b5b813561258184826020860161251a565b91505092915050565b600080604083850312156125a1576125a0612233565b5b60006125af85828601612286565b925050602083013567ffffffffffffffff8111156125d0576125cf612238565b5b6125dc8582860161255c565b9150509250929050565b6125ef8161225d565b82525050565b600060208201905061260a60008301846125e6565b92915050565b6000806040838503121561262757612626612233565b5b600061263585828601612286565b925050602061264685828601612286565b9150509250929050565b7f4e487b7100000000000000000000000000000000000000000000000000000000600052602260045260246000fd5b6000600282049050600182168061269757607f821691505b602082108114156126ab576126aa612650565b5b50919050565b7f45524332303a207472616e7366657220616d6f756e742065786365656473206160008201527f6c6c6f77616e6365000000000000000000000000000000000000000000000000602082015250565b600061270d602883612179565b9150612718826126b1565b604082019050919050565b6000602082019050818103600083015261273c81612700565b9050919050565b7f46756e6374696f6e206d7573742062652063616c6c6564207468726f7567682060008201527f64656c656761746563616c6c0000000000000000000000000000000000000000602082015250565b600061279f602c83612179565b91506127aa82612743565b604082019050919050565b600060208201905081810360008301526127ce81612792565b9050919050565b7f46756e6374696f6e206d7573742062652063616c6c6564207468726f7567682060008201527f6163746976652070726f78790000000000000000000000000000000000000000602082015250565b6000612831602c83612179565b915061283c826127d5565b604082019050919050565b6000602082019050818103600083015261286081612824565b9050919050565b7f4e487b7100000000000000000000000000000000000000000000000000000000600052601160045260246000fd5b60006128a18261229b565b91506128ac8361229b565b9250827fffffffffffffffffffffffffffffffffffffffffffffffffffffffffffffffff038211156128e1576128e0612867565b5b828201905092915050565b7f4f776e61626c653a2063616c6c6572206973206e6f7420746865206f776e6572600082015250565b6000612922602083612179565b915061292d826128ec565b602082019050919050565b6000602082019050818103600083015261295181612915565b9050919050565b7f496e697469616c697a61626c653a20636f6e747261637420697320616c72656160008201527f647920696e697469616c697a6564000000000000000000000000000000000000602082015250565b60006129b4602e83612179565b91506129bf82612958565b604082019050919050565b600060208201905081810360008301526129e3816129a7565b9050919050565b7f45524332303a2064656372656173656420616c6c6f77616e63652062656c6f7760008201527f207a65726f000000000000000000000000000000000000000000000000000000602082015250565b6000612a46602583612179565b9150612a51826129ea565b604082019050919050565b60006020820190508181036000830152612a7581612a39565b9050919050565b7f4f776e61626c653a206e6577206f776e657220697320746865207a65726f206160008201527f6464726573730000000000000000000000000000000000000000000000000000602082015250565b6000612ad8602683612179565b9150612ae382612a7c565b604082019050919050565b60006020820190508181036000830152612b0781612acb565b9050919050565b7f45524332303a20617070726f76652066726f6d20746865207a65726f2061646460008201527f7265737300000000000000000000000000000000000000000000000000000000602082015250565b6000612b6a602483612179565b9150612b7582612b0e565b604082019050919050565b60006020820190508181036000830152612b9981612b5d565b9050919050565b7f45524332303a20617070726f766520746f20746865207a65726f20616464726560008201527f7373000000000000000000000000000000000000000000000000000000000000602082015250565b6000612bfc602283612179565b9150612c0782612ba0565b604082019050919050565b60006020820190508181036000830152612c2b81612bef565b9050919050565b7f45524332303a207472616e736665722066726f6d20746865207a65726f20616460008201527f6472657373000000000000000000000000000000000000000000000000000000602082015250565b6000612c8e602583612179565b9150612c9982612c32565b604082019050919050565b60006020820190508181036000830152612cbd81612c81565b9050919050565b7f45524332303a207472616e7366657220746f20746865207a65726f206164647260008201527f6573730000000000000000000000000000000000000000000000000000000000602082015250565b6000612d20602383612179565b9150612d2b82612cc4565b604082019050919050565b60006020820190508181036000830152612d4f81612d13565b9050919050565b7f45524332303a207472616e7366657220616d6f756e742065786365656473206260008201527f616c616e63650000000000000000000000000000000000000000000000000000602082015250565b6000612db2602683612179565b9150612dbd82612d56565b604082019050919050565b60006020820190508181036000830152612de181612da5565b9050919050565b7f45524331393637557067726164653a207570677261646520627265616b73206660008201527f7572746865722075706772616465730000000000000000000000000000000000602082015250565b6000612e44602f83612179565b9150612e4f82612de8565b604082019050919050565b60006020820190508181036000830152612e7381612e37565b9050919050565b7f45524332303a206d696e7420746f20746865207a65726f206164647265737300600082015250565b6000612eb0601f83612179565b9150612ebb82612e7a565b602082019050919050565b60006020820190508181036000830152612edf81612ea3565b9050919050565b7f45524332303a206275726e2066726f6d20746865207a65726f2061646472657360008201527f7300000000000000000000000000000000000000000000000000000000000000602082015250565b6000612f42602183612179565b9150612f4d82612ee6565b604082019050919050565b60006020820190508181036000830152612f7181612f35565b9050919050565b7f45524332303a206275726e20616d6f756e7420657863656564732062616c616e60008201527f6365000000000000000000000000000000000000000000000000000000000000602082015250565b6000612fd4602283612179565b9150612fdf82612f78565b604082019050919050565b6000602082019050818103600083015261300381612fc7565b9050919050565b60006130158261229b565b91506130208361229b565b92508282101561303357613032612867565b5b828203905092915050565b7f496e697469616c697a61626c653a20636f6e7472616374206973206e6f74206960008201527f6e697469616c697a696e67000000000000000000000000000000000000000000602082015250565b600061309a602b83612179565b91506130a58261303e565b604082019050919050565b600060208201905081810360008301526130c98161308d565b9050919050565b7f455243313936373a206e657720696d706c656d656e746174696f6e206973206e60008201527f6f74206120636f6e747261637400000000000000000000000000000000000000602082015250565b600061312c602d83612179565b9150613137826130d0565b604082019050919050565b6000602082019050818103600083015261315b8161311f565b9050919050565b7f416464726573733a2064656c65676174652063616c6c20746f206e6f6e2d636f60008201527f6e74726163740000000000000000000000000000000000000000000000000000602082015250565b60006131be602683612179565b91506131c982613162565b604082019050919050565b600060208201905081810360008301526131ed816131b1565b9050919050565b600081519050919050565b600081905092915050565b6000613215826131f4565b61321f81856131ff565b935061322f81856020860161218a565b80840191505092915050565b6000613247828461320a565b91508190509291505056fe416464726573733a206c6f772d6c6576656c2064656c65676174652063616c6c206661696c6564a264697066735822122026483383a14c2b8775fd85e6f5bf36cfe1753d98e365f5bd8d218a34588f0ffa64736f6c634300080a0033",
  "immutableReferences": {
    "641": [
      {
        "length": 32,
        "start": 1665
      },
      {
        "length": 32,
        "start": 1808
      },
      {
        "length": 32,
        "start": 2381
      },
      {
        "length": 32,
        "start": 2524
      }
    ]
  },
  "source": "//SPDX-License-Identifier: MIT\r\n\r\npragma solidity >0.8.0;\r\n\r\n\r\nimport \"@openzeppelin/contracts-upgradeable/proxy/utils/Initializable.sol\";\r\nimport \"@openzeppelin/contracts-upgradeable/token/ERC20/ERC20Upgradeable.sol\";\r\nimport \"@openzeppelin/contracts-upgradeable/proxy/utils/UUPSUpgradeable.sol\";\r\nimport \"@openzeppelin/contracts-upgradeable/access/OwnableUpgradeable.sol\";\r\n\r\ncontract Token1 is   Initializable, ERC20Upgradeable, UUPSUpgradeable, OwnableUpgradeable{ \r\n\r\n\r\n    function initialize() public initializer {\r\n        __ERC20_init(\"Token1\" , \"T1\");\r\n         __Ownable_init();\r\n        __UUPSUpgradeable_init();\r\n        _mint(msg.sender, 10000 * 10 **18);\r\n    }\r\n\r\n\r\n    constructor() initializer{}\r\n\r\n    function buy(uint amountToBeBought) public payable returns(bool){\r\n        require(msg.value >= amountToBeBought);\r\n        transfer(msg.sender, amountToBeBought);\r\n        return true;\r\n    }\r\n\r\n    function mint(address to, uint amount) public onlyOwner{\r\n        _mint(to, amount);\r\n    }\r\n\r\n    function burn(uint burningTokensAmount) public {\r\n        _burn(msg.sender, burningTokensAmount);\r\n    }\r\n\r\n    function _authorizeUpgrade(address) internal override onlyOwner {}\r\n\r\n}",
  "sourcePath": "F:\\ProxyContraact-Truffle\\contracts\\Token1.sol",
  "compiler": {
    "name": "solc",
    "version": "0.8.10+commit.fc410830.Emscripten.clang"
  },
  "schemaVersion": "3.4.3",
  "updatedAt": "2021-12-23T13:14:18.525Z",
  "devdoc": {
    "kind": "dev",
    "methods": {
      "allowance(address,address)": {
        "details": "See {IERC20-allowance}."
      },
      "approve(address,uint256)": {
        "details": "See {IERC20-approve}. Requirements: - `spender` cannot be the zero address."
      },
      "balanceOf(address)": {
        "details": "See {IERC20-balanceOf}."
      },
      "decimals()": {
        "details": "Returns the number of decimals used to get its user representation. For example, if `decimals` equals `2`, a balance of `505` tokens should be displayed to a user as `5.05` (`505 / 10 ** 2`). Tokens usually opt for a value of 18, imitating the relationship between Ether and Wei. This is the value {ERC20} uses, unless this function is overridden; NOTE: This information is only used for _display_ purposes: it in no way affects any of the arithmetic of the contract, including {IERC20-balanceOf} and {IERC20-transfer}."
      },
      "decreaseAllowance(address,uint256)": {
        "details": "Atomically decreases the allowance granted to `spender` by the caller. This is an alternative to {approve} that can be used as a mitigation for problems described in {IERC20-approve}. Emits an {Approval} event indicating the updated allowance. Requirements: - `spender` cannot be the zero address. - `spender` must have allowance for the caller of at least `subtractedValue`."
      },
      "increaseAllowance(address,uint256)": {
        "details": "Atomically increases the allowance granted to `spender` by the caller. This is an alternative to {approve} that can be used as a mitigation for problems described in {IERC20-approve}. Emits an {Approval} event indicating the updated allowance. Requirements: - `spender` cannot be the zero address."
      },
      "name()": {
        "details": "Returns the name of the token."
      },
      "owner()": {
        "details": "Returns the address of the current owner."
      },
      "renounceOwnership()": {
        "details": "Leaves the contract without owner. It will not be possible to call `onlyOwner` functions anymore. Can only be called by the current owner. NOTE: Renouncing ownership will leave the contract without an owner, thereby removing any functionality that is only available to the owner."
      },
      "symbol()": {
        "details": "Returns the symbol of the token, usually a shorter version of the name."
      },
      "totalSupply()": {
        "details": "See {IERC20-totalSupply}."
      },
      "transfer(address,uint256)": {
        "details": "See {IERC20-transfer}. Requirements: - `recipient` cannot be the zero address. - the caller must have a balance of at least `amount`."
      },
      "transferFrom(address,address,uint256)": {
        "details": "See {IERC20-transferFrom}. Emits an {Approval} event indicating the updated allowance. This is not required by the EIP. See the note at the beginning of {ERC20}. Requirements: - `sender` and `recipient` cannot be the zero address. - `sender` must have a balance of at least `amount`. - the caller must have allowance for ``sender``'s tokens of at least `amount`."
      },
      "transferOwnership(address)": {
        "details": "Transfers ownership of the contract to a new account (`newOwner`). Can only be called by the current owner."
      },
      "upgradeTo(address)": {
        "details": "Upgrade the implementation of the proxy to `newImplementation`. Calls {_authorizeUpgrade}. Emits an {Upgraded} event."
      },
      "upgradeToAndCall(address,bytes)": {
        "details": "Upgrade the implementation of the proxy to `newImplementation`, and subsequently execute the function call encoded in `data`. Calls {_authorizeUpgrade}. Emits an {Upgraded} event."
      }
    },
    "version": 1
  },
  "userdoc": {
    "kind": "user",
    "methods": {},
    "version": 1
  }
}